:100000000C9464000C948C000C948C000C948C0068
:100010000C948C000C948C000C948C000C948C0030
:100020000C948C000C948C000C948C000C948C0020
:100030000C948C000C948C000C948C000C948C0010
:100040000C948F040C948C000C94AF050C94FD055B
:100050000C948C000C948C000C948C000C948C00F0
:100060000C948C000C948C000000000024002700ED
:100070002A0000000000250028002B0000000000DE
:1000800023002600290004040404040404040202DA
:100090000202020203030303030301020408102007
:1000A0004080010204081020010204081020000012
:1000B0000007000201000003040600000000000029
:1000C0000000E1006907DA0011241FBECFEFD8E07D
:1000D000DEBFCDBF11E0A0E0B1E0E8E2F8E102C090
:1000E00005900D92AA35B107D9F712E0AAE5B1E063
:1000F00001C01D92A533B107E1F710E0C6ECD0E0D6
:1001000004C02297FE010E94030CC23CD107C9F72C
:100110000E94BF070C94070C0C940000FB01DC014B
:1001200002C001900D9241505040D8F70895FB0154
:10013000DC018D91019080190110D9F3990B08957C
:10014000FB01DC0101900D920020E1F70895CF92B0
:10015000EF920F9381309105E1F46F5F7F4F31F59E
:100160008AE591E060E071E00E94270982E691E073
:1001700060E071E00E94270989E691E068E049E0CB
:1001800024E005E056E0E52E37E0C32E0E94560439
:100190000DC0892B59F46F5F7F4F41F482E691E0E7
:1001A0000E94C3098AE591E00E94C3090F91EF9074
:1001B000CF90089580E090E06FEF7FEF0E94A7005E
:1001C000089581E090E06FEF7FEF0E94A70008950F
:1001D0000F931F9301E00EC08FE092E00E94F006A3
:1001E000182F8AE591E0612F0E94E1081A3011F47E
:1001F000009361018FE092E00E94BF06892B61F7B6
:100200001F910F910895EF92FF920F931F93DF9329
:10021000CF93CDB7DEB72E970FB6F894DEBF0FBEE3
:10022000CDBF7C0189E691E00E94980389E691E0C8
:1002300060E040E00E946903F70184819581409766
:1002400030F489E691E0B7010E9417082CC08E01B6
:100250000F5F1F4FC801B70140E050E020E130E0E0
:100260000E945A0989E691E0B8010E941708C80166
:100270000E94C30989E691E060E041E00E946903C1
:100280008E01085F1F4FC801B70140E150E020E236
:1002900030E00E945A0989E691E0B8010E941708EF
:1002A000C8010E94C3092E960FB6F894DEBF0FBE98
:1002B000CDBFCF91DF911F910F91FF90EF900895E7
:1002C0000F931F938C0120915E0130915F012250AA
:1002D00030406AE571E045E050E00E945A09C801EB
:1002E0001F910F91089560E00E945B05089561E001
:1002F0000E945B0508950F931F93DF93CF93CDB7B3
:10030000DEB727970FB6F894DEBF0FBECDBF809142
:100310005E0190915F01892BA1F08E010F5F1F4F4D
:10032000C8016AE571E041E050E025E030E00E945C
:100330005A0982E691E0B8010E94A109C8010E9411
:10034000C30927960FB6F894DEBF0FBECDBFCF917D
:10035000DF911F910F910895FF920F931F93DF93E9
:10036000CF93CDB7DEB727970FB6F894DEBF0FBE99
:10037000CDBF8E010F5F1F4FC8016AE571E045E0F8
:1003800050E027E030E00E945A09C80161E071E0C6
:100390000E945B08F82EC8010E94C3098F2DF1103E
:1003A00081E027960FB6F894DEBF0FBECDBFCF9188
:1003B000DF911F910F91FF9008950F931F9309E60E
:1003C00011E0C80160E142E020E00E94A003C80102
:1003D00064E071E00E9414081F910F910895EF925C
:1003E000FF920F931F93DF93CF93CDB7DEB72E9776
:1003F0000FB6F894DEBF0FBECDBF80916101882398
:1004000009F47BC0109261010E947B0182E691E0B9
:1004100065E171E00E945B08882321F089E691E0A4
:100420000E94980382E691E06AE171E00E945B0815
:100430008823B9F080912F01909130010E947301BF
:1004400080913101909132010E94730189E691E01F
:100450000E94980389E691E064E071E00E9414082C
:1004600046C082E691E06FE171E00E945B0888235C
:10047000C1F07E010894E11CF11CC7010E946001DB
:100480008E01085F1F4FC801B7010E94B809C8015B
:100490000E940301C8010E94C309C7010E94C30949
:1004A00026C082E691E064E271E00E945B08882346
:1004B00039F00E94AC0120912F01309130010EC023
:1004C00082E691E069E271E00E945B08882379F09E
:1004D0000E94AC012091310130913201813021F430
:1004E000C9010E94770103C0C9010E9473018AE516
:1004F00091E060E071E00E9441092E960FB6F894F9
:10050000DEBF0FBECDBFCF91DF911F910F91FF9046
:10051000EF9008958FE092E040E855E260E070E0EF
:100520000E94380680912F0161E00E941C05809195
:10053000310161E00E941C050E94DD0108950F93C6
:100540001F938C01FC01868160E00E945B0581E0C5
:1005500090E00E94D704F801868161E00E945B056B
:1005600081E090E00E94D704F801868160E00E945B
:100570005B0584E690E00E94D7041F910F910895D7
:10058000CF92DF92EF92FF920F931F93CF93DF935F
:10059000D82EC92E282F392FC9018C01C0E0D0E0F8
:1005A000E62EFF24F801878161E00E941C05B70157
:1005B0000C2E02C0759567950A94E2F76170F801F8
:1005C00087810E945B0521960F5F1F4FC830D105C0
:1005D00049F78D2D9C2D0E949F02DF91CF911F9195
:1005E0000F91FF90EF90DF90CF900895CF92DF9220
:1005F000EF92FF920F931F93CF93DF93D82EC92EC4
:10060000282F392FC9018C01C0E0D0E0E62EFF244D
:10061000F801878161E00E941C05B7010C2E02C021
:10062000759567950A94E2F76170F80187810E94D9
:100630005B0521960F5F1F4FC430D10549F78D2D03
:100640009C2D0E949F02DF91CF911F910F91FF90EF
:10065000EF90DF90CF9008951F93CF93DF93EC013D
:10066000162F8C81642F0E945B058D818F3F19F0BE
:1006700060E00E945B058F8584FF05C0CE01612F7D
:100680000E94C0020EC0612F70E084E075956795EE
:100690008A95E1F7CE010E94F602CE01612F0E94F9
:1006A000F602DF91CF911F91089541E00E942C0343
:1006B00081E090E0089540E00E942C030895FC0141
:1006C0006089862F8460808B6C60CF010E945B0301
:1006D0000895DF93CF93CDB7DEB728970FB6F89480
:1006E000DEBF0FBECDBF9C01FE013196A1E4B1E09B
:1006F00088E00D9001928150E1F7F9018389481754
:1007000010F0482F4150E42FF0E0EE0FFF1FEC0FE8
:10071000FD1F8181680F6068C9010E945B032896F4
:100720000FB6F894DEBF0FBECDBFCF91DF91089515
:1007300061E00E945B0380ED97E00E94D70408957A
:10074000CF93DF93EC01423018F08F8588608F875C
:100750004B8B1C8A222329F0413019F48F85846049
:100760008F8780E593EC0E94D7048C8160E00E9423
:100770005B058E8160E00E945B058D818F3F19F0E3
:1007800060E00E945B056F8564FD1DC0CE0163E0E3
:100790000E94F60284E991E10E94D704CE0163E051
:1007A0000E94F60284E991E10E94D704CE0163E041
:1007B0000E94F60286E990E00E94D704CE0162E032
:1007C0000E94F60216C06062CE010E945B0384E9BB
:1007D00091E10E94D7046F856062CE010E945B03A5
:1007E00086E990E00E94D7046F856062CE010E9486
:1007F0005B036F856062CE010E945B0384E0888B9F
:10080000CE010E945F03CE010E94980382E0898B93
:10081000CE0166E00E945B03DF91CF9108956F9255
:100820007F928F92AF92CF92EF920F931F93DF93AD
:10083000CF93CDB7DEB73C01162F842FF30144834D
:1008400025830683E782C086A18682869D8593875D
:100850009E8594879F8595879889968761E00E94F9
:100860001C05F30185818F3F19F061E00E941C0592
:10087000F301868161E00E941C05112319F0F30148
:10088000178603C080E1F3018787C30160E141E07F
:1008900020E00E94A003CF91DF911F910F91EF9074
:1008A000CF90AF908F907F906F9008958F92AF927E
:1008B000CF92EF920F931F93CF93DF93DC01362FEC
:1008C000542F722F102FAE2C8C2C13961C921E922C
:1008D00012978DE391E011969C938E9300D000D0F7
:1008E000EDB7FEB73196CDB7DEB71982118212820D
:1008F0001382CD0161E0432F2FEF052FE72EC12E8C
:100900000E940F040F900F900F900F90DF91CF91E6
:100910001F910F91EF90CF90AF908F9008951F92FD
:100920000F920FB60F9211242F933F938F939F93A3
:10093000AF93BF938091820190918301A091840134
:10094000B0918501309186010196A11DB11D232F23
:100950002D5F2D3720F02D570196A11DB11D20933D
:1009600086018093820190938301A0938401B093C8
:10097000850180917E0190917F01A0918001B091CD
:1009800081010196A11DB11D80937E0190937F018D
:10099000A0938001B0938101BF91AF919F918F91FE
:1009A0003F912F910F900FBE0F901F9018950197B8
:1009B00039F0880F991F880F991F02970197F1F757
:1009C0000895789484B5826084BD84B5816084BDC7
:1009D00085B5826085BD85B5816085BDEEE6F0E0B8
:1009E000808181608083E1E8F0E010828081826014
:1009F0008083808181608083E0E8F0E08081816095
:100A00008083E1EBF0E0808184608083E0EBF0E0C4
:100A1000808181608083EAE7F0E080818460808368
:100A20008081826080838081816080838081806812
:100A300080831092C1000895CF93DF93482F50E038
:100A4000CA0186569F4FFC0134914A575F4FFA0105
:100A50008491882369F190E0880F991FFC01E8597F
:100A6000FF4FA591B491FC01EE58FF4FC591D49171
:100A7000662351F42FB7F8948C91932F9095892386
:100A80008C93888189230BC0623061F42FB7F8946E
:100A90008C91932F909589238C938881832B8883C5
:100AA0002FBF06C09FB7F8948C91832B8C939FBF68
:100AB000DF91CF910895482F50E0CA0182559F4F92
:100AC000FC012491CA0186569F4FFC0194914A571C
:100AD0005F4FFA013491332309F440C0222351F1CE
:100AE000233071F0243028F42130A1F0223011F5A8
:100AF00014C02630B1F02730C1F02430D9F404C03E
:100B0000809180008F7703C0809180008F7D8093DB
:100B1000800010C084B58F7702C084B58F7D84BDFE
:100B200009C08091B0008F7703C08091B0008F7DA5
:100B30008093B000E32FF0E0EE0FFF1FEE58FF4F61
:100B4000A591B4912FB7F894662321F48C919095D8
:100B5000892302C08C91892B8C932FBF08951F92FB
:100B60000F920FB60F9211242F933F934F938F93B1
:100B70009F93EF93FF938091C00082FD1DC0409131
:100B8000C6002091C7013091C8012F5F3F4F2F73DE
:100B900030708091C9019091CA012817390771F00E
:100BA000E091C701F091C801E957FE4F40833093AF
:100BB000C8012093C70102C08091C600FF91EF9148
:100BC0009F918F914F913F912F910F900FBE0F905A
:100BD0001F901895E0911B02F0911C02E05CFF4F02
:100BE0008191919120813181821B930B8F73907041
:100BF000892B11F00E94E80008951F920F920FB602
:100C00000F9211242F933F938F939F93EF93FF9312
:100C100020910B0230910C0280910D0290910E02F6
:100C20002817390731F48091C1008F7D8093C1006E
:100C300014C0E0910D02F0910E02E553FE4F2081A9
:100C400080910D0290910E0201968F739070909397
:100C50000E0280930D022093C600FF91EF919F91A9
:100C60008F913F912F910F900FBE0F901F9018956D
:100C7000AF92BF92DF92EF92FF920F931F93CF93A9
:100C8000DF93EC017A018B01DD24403081EE5807BF
:100C900080E0680780E0780711F0DD24D39491E0CC
:100CA000A92EB12CEC89FD89DD2069F0C50108A0D1
:100CB00002C0880F991F0A94E2F7808360E079E010
:100CC0008DE390E005C0108260E874E88EE190E06A
:100CD000A80197010E94DF0B215030404040504056
:100CE000569547953795279580E12030380720F0B5
:100CF000DD2011F0DD24D6CFE889F9893083EA8937
:100D0000FB89208319A2EE89FF89408121E030E030
:100D1000C9010C8C02C0880F991F0A94E2F7482B76
:100D20004083EE89FF894081C9010D8C02C0880F84
:100D3000991F0A94E2F7482B4083EE89FF8940818E
:100D4000C9010E8C02C0880F991F0A94E2F7482B44
:100D50004083EE89FF8980810F8C02C0220F331FF0
:100D60000A94E2F7209528232083DF91CF911F91E9
:100D70000F91FF90EF90DF90BF90AF900895DC014E
:100D80001C96ED91FC911D97E05CFF4F21913191F4
:100D900080819181281B390B2F733070C901089510
:100DA000DC011C96ED91FC911D97E05CFF4F2081CA
:100DB0003181E054F040DF01AE5BBF4F8D919C91DB
:100DC00011972817390719F42FEF3FEF07C08D91BE
:100DD0009C91E80FF91F8081282F30E0C901089508
:100DE000DC011C96ED91FC911D97E05CFF4F20818A
:100DF0003181E054F040DF01AE5BBF4F8D919C919B
:100E000011972817390719F42FEF3FEF10C08D9174
:100E10009C911197E80FF91F20818D919C9111975A
:100E200001968F73907011969C938E9330E0C90158
:100E30000895DC0191968C919197882339F054960E
:100E4000ED91FC915597808186FFF9CF91961C9288
:100E50000895CF93DF93EC01EE85FF85E05CFF4FB3
:100E600020813181E054F0402F5F3F4F2F7330706D
:100E7000DF01AE5BBF4F8D919C9111972817390709
:100E8000D1F3E05CFF4F80819181E054F040E80FA6
:100E9000F91F6083EE85FF85E05CFF4F318320837F
:100EA000EE89FF89208181E090E00F8C02C0880FDD
:100EB000991F0A94E2F7282B208381E089A3EC890B
:100EC000FD8980818064808381E090E0DF91CF9113
:100ED0000895109212021092110288EE93E0A0E0A1
:100EE000B0E08093130290931402A0931502B09384
:100EF00016028DE491E09093100280930F0287E830
:100F000091E090931C0280931B028BEC91E09093F4
:100F10001E0280931D0285EC90E090932002809346
:100F20001F0284EC90E0909322028093210280ECD7
:100F300090E0909324028093230281EC90E09093C0
:100F400026028093250282EC90E090932802809301
:100F5000270286EC90E090932A028093290284E095
:100F600080932B0283E080932C0287E080932D02F4
:100F700085E080932E0281E080932F020895CF9325
:100F8000DF930E94E1040E948A02CAEED5E00E942B
:100F9000EF012097E1F30E94EA05F9CFCF92DF92AB
:100FA000EF92FF920F931F93CF93DF937C016B011E
:100FB0008A01C0E0D0E00FC0D6016D916D01D7016C
:100FC000ED91FC910190F081E02DC7010995C80FCA
:100FD000D91F015010400115110571F7CE01DF91A5
:100FE000CF911F910F91FF90EF90DF90CF900895D8
:100FF000CF93DF93EC016115710519F420E030E027
:101000000FC0DB010D900020E9F71197A61BB70B6D
:10101000E881F9810280F381E02DAD0109959C0101
:10102000C901DF91CF9108950E94F8070895AF920A
:10103000BF92CF92DF92EF92FF920F931F93CF93C5
:10104000DF935C016B01EE24FF24C0E0D0E010C010
:10105000D501ED91FC9100811181C601BE010E9474
:101060004A08682FC501F8010995E80EF91E219676
:10107000F60184819581C817D90750F3C701DF9124
:10108000CF911F910F91FF90EF90DF90CF90BF9085
:10109000AF900895FC01848195816817790748F421
:1010A0000190F081E02D309721F0E60FF71F80814D
:1010B000089580E00895DC01FB0114968D919C91C8
:1010C0001597892B31F461157105A9F090E08081A5
:1010D00008C00D90BC91A02D6115710529F490E018
:1010E0008C91882349F407C0CD010E9497009C0190
:1010F00090E0232B09F491E0892F08950F931F931B
:10110000CF93DF93EC018B016F5F7F4F88819981D3
:101110000E94FE0A009711F480E005C0998388833D
:101120001B830A8381E0DF91CF911F910F91089576
:10113000CF93DF93EC0188819981892B29F08A81F3
:101140009B818617970760F4CE010E947E08882352
:1011500041F08C819D81892B19F4E881F9811082FD
:1011600081E0DF91CF910895EF92FF920F931F934B
:10117000CF93DF93EC017B016C817D81E114F1045D
:10118000C1F04115510599F08A01060F171FB801EA
:101190000E949808882369F0888199812C813D817B
:1011A000820F931FB7010E94A0001D830C8381E072
:1011B00001C080E0DF91CF911F910F91FF90EF90E0
:1011C0000895DF93CF9300D0CDB7DEB769831A823D
:1011D000BE016F5F7F4F41E050E00E94B4080F9066
:1011E0000F90CF91DF910895CF93DF93EC01888129
:1011F0009981009711F00E94660A198218821D8257
:101200001C821B821A82DF91CF910895EF92FF9288
:101210000F931F93CF93DF93EC017B018A01BA01F7
:101220000E949808882321F4CE010E94F40807C088
:101230001D830C8388819981B7010E94A000CE0193
:10124000DF91CF911F910F91FF90EF900895CF9371
:10125000DF93EC01198218821B821A821D821C8284
:101260001E826115710551F0DB010D900020E9F738
:101270001197A61BB70BAD010E940609DF91CF9114
:1012800008950F931F93182F092F6115710559F0B9
:10129000DB010D900020E9F71197A61BB70BAD01FC
:1012A0000E94060902C00E94F408812F902F1F910E
:1012B0000F910895BF92CF92DF92EF92FF920F931A
:1012C0001F93CF93DF93082FB92E6B017A01E901A9
:1012D0002417350710F4EA017901802F9B2D6EE267
:1012E00071E00E942709D60114968D919C91159763
:1012F0008E159F05D0F08C179D0708F4EC01D601E0
:10130000ED91FC911197EC0FFD1F108110826D91F2
:101310007C916E0D7F1D802F9B2D0E944109D6016F
:10132000ED91FC91EC0FFD1F1083802F9B2DDF9121
:10133000CF911F910F91FF90EF90DF90CF90BF90D2
:101340000895CF93DF93EC01FB018617970761F0B7
:10135000608171816115710529F0448155810E9478
:10136000060902C00E94F408CE01DF91CF910895D2
:10137000FC0111821082138212821582148216825D
:101380000E94A1090895FC01808191810E94660A52
:1013900008950F931F93CF93DF93BC018230910583
:1013A00010F462E070E0E0913302F091340240E02A
:1013B00050E0A0E0B0E024C08081918186179707BB
:1013C000D0F08617970771F482819381109729F0E6
:1013D00013969C938E9312972CC090933402809313
:1013E000330227C04115510519F08417950718F4E9
:1013F0008D01AC01EF01DF01828193819C01F90134
:101400003097D1F641155105F9F0CA01861B970BAB
:101410008430910580F48A819B810115110521F0AA
:10142000F8019383828304C0909334028093330243
:10143000FE01329645C0FE01E80FF91F61937193DA
:101440000297998388833CC0809131029091320247
:10145000892B41F4809135019091360190933202AD
:101460008093310240913701509138014115510567
:1014700041F44DB75EB78091330190913401481B20
:10148000590B209131023091320224173507B0F404
:10149000CA01821B930B8617970780F0AB014E5F42
:1014A0005F4F8417950750F0420F531F509332023D
:1014B00040933102F9016193719302C0E0E0F0E0E2
:1014C000CF01DF91CF911F910F910895CF93DF93BB
:1014D0009C01009709F48FC0EC0122971B821A82AD
:1014E00060913302709134026115710581F4888135
:1014F0009981820F931F2091310230913202281777
:10150000390739F5D0933202C093310274C0DB0140
:1015100040E050E0AC17BD0708F1BB83AA83FE0191
:1015200021913191E20FF31FAE17BF0779F48D912E
:101530009C911197280F391F2E5F3F4F39832883C5
:1015400012968D919C9113979B838A834115510527
:1015500071F4D0933402C09333024DC012968D9132
:101560009C911397AD01009711F0DC01D3CFDA0104
:101570001396DC93CE931297FA0121913191E20FE9
:10158000F31FCE17DF0769F488819981280F391F6F
:101590002E5F3F4FFA01318320838A819B819383A1
:1015A0008283E0E0F0E0DB0112968D919C9113972D
:1015B000009719F0BC01FD01F6CFAB014E5F5F4F04
:1015C000DB018D919C91840F951F20913102309108
:1015D00032022817390779F4309729F4109234022F
:1015E0001092330202C01382128242505040509334
:1015F000320240933102DF91CF9108956F927F9232
:101600008F929F92AF92BF92CF92DF92EF92FF9212
:101610000F931F93CF93DF938C01009729F4CB0195
:101620000E94C9098C01BBC08EEFE82E8FEFF82E07
:10163000E00EF11E4801860E971E8E149F0408F4DA
:10164000ACC0D7014D915C91119746175707B8F080
:101650004530510508F4A3C0CA01049786179707BF
:1016600008F49DC042505040461B570BF401419373
:1016700051936D937C93CF010E94660A90C05B01E9
:10168000A41AB50A3801640E751EA0913302B091F8
:101690003402E0E0F0E0CC24DD2447C0A615B70515
:1016A000A9F5CD91DC911197CE0102968A159B0583
:1016B00068F1CE018A199B09029612962C91129715
:1016C00013963C91059758F0F40122833383CA198D
:1016D000DB09D183C083D7016D937C9309C04E5F32
:1016E0005F4F4C0F5D1FF70151834083C901FC011F
:1016F000C114D10431F0D6011396FC93EE931297E6
:101700004EC0F0933402E093330249C08D919C9116
:101710001197E817F90708F4FC016D0112968C91F6
:10172000129713969C919C01D901109709F0B6CF9E
:10173000809131029091320286159705E9F4E617FF
:10174000F707D0F420913701309138012115310588
:1017500041F42DB73EB78091330190913401281B9D
:10176000390B82169306C8F49092320280923102AD
:10177000F7017183608313C0CB010E94C909EC019A
:10178000009759F0D7014D915C91B8010E948E00ED
:10179000C8010E94660A8E0102C000E010E0C80184
:1017A000DF91CF911F910F91FF90EF90DF90CF903D
:1017B000BF90AF909F908F907F906F900895A1E21F
:1017C0001A2EAA1BBB1BFD010DC0AA1FBB1FEE1FBB
:1017D000FF1FA217B307E407F50720F0A21BB30B06
:1017E000E40BF50B661F771F881F991F1A9469F782
:1017F00060957095809590959B01AC01BD01CF01DE
:101800000895EE0FFF1F0590F491E02D099410E06C
:10181000C6ECD0E004C0FE010E94030C2296C83C36
:08182000D107C9F7F894FFCFCE
:10182800004F4E00526561647920746F20636F6EBB
:101838006E65637400535441520053544F50005422
:10184800455854004C454430004C45443100000D87
:10185800000C00800035020000000000005503CE97
:10186800070000400014005400000000002907CEC3
:0A18780007BF06F006D006190700AE
:00000001FF
